{
  "_format": "hh-sol-artifact-1",
  "contractName": "RockPaperScissors",
  "sourceName": "contracts/RockPaperScissors.sol",
  "abi": [
    {
      "anonymous": false,
      "inputs": [
        {
          "indexed": true,
          "internalType": "uint256",
          "name": "gameId",
          "type": "uint256"
        },
        {
          "indexed": true,
          "internalType": "address",
          "name": "player",
          "type": "address"
        }
      ],
      "name": "Committed",
      "type": "event"
    },
    {
      "anonymous": false,
      "inputs": [
        {
          "indexed": true,
          "internalType": "uint256",
          "name": "gameId",
          "type": "uint256"
        },
        {
          "indexed": true,
          "internalType": "address",
          "name": "player1",
          "type": "address"
        },
        {
          "indexed": false,
          "internalType": "uint256",
          "name": "stake",
          "type": "uint256"
        }
      ],
      "name": "GameCreated",
      "type": "event"
    },
    {
      "anonymous": false,
      "inputs": [
        {
          "indexed": true,
          "internalType": "uint256",
          "name": "gameId",
          "type": "uint256"
        },
        {
          "indexed": false,
          "internalType": "address",
          "name": "winner",
          "type": "address"
        },
        {
          "indexed": false,
          "internalType": "uint256",
          "name": "amount",
          "type": "uint256"
        }
      ],
      "name": "GameFinished",
      "type": "event"
    },
    {
      "anonymous": false,
      "inputs": [
        {
          "indexed": true,
          "internalType": "uint256",
          "name": "gameId",
          "type": "uint256"
        },
        {
          "indexed": true,
          "internalType": "address",
          "name": "player2",
          "type": "address"
        }
      ],
      "name": "PlayerJoined",
      "type": "event"
    },
    {
      "anonymous": false,
      "inputs": [
        {
          "indexed": true,
          "internalType": "uint256",
          "name": "gameId",
          "type": "uint256"
        },
        {
          "indexed": true,
          "internalType": "address",
          "name": "player",
          "type": "address"
        },
        {
          "indexed": false,
          "internalType": "uint8",
          "name": "move",
          "type": "uint8"
        }
      ],
      "name": "Revealed",
      "type": "event"
    },
    {
      "inputs": [
        {
          "internalType": "uint256",
          "name": "id",
          "type": "uint256"
        }
      ],
      "name": "claimTimeoutWin",
      "outputs": [],
      "stateMutability": "nonpayable",
      "type": "function"
    },
    {
      "inputs": [
        {
          "internalType": "uint256",
          "name": "id",
          "type": "uint256"
        },
        {
          "internalType": "bytes32",
          "name": "commitHash",
          "type": "bytes32"
        }
      ],
      "name": "commitMove",
      "outputs": [],
      "stateMutability": "nonpayable",
      "type": "function"
    },
    {
      "inputs": [
        {
          "internalType": "uint256",
          "name": "commitSeconds",
          "type": "uint256"
        },
        {
          "internalType": "uint256",
          "name": "revealSeconds",
          "type": "uint256"
        }
      ],
      "name": "createGame",
      "outputs": [
        {
          "internalType": "uint256",
          "name": "",
          "type": "uint256"
        }
      ],
      "stateMutability": "payable",
      "type": "function"
    },
    {
      "inputs": [],
      "name": "gameCount",
      "outputs": [
        {
          "internalType": "uint256",
          "name": "",
          "type": "uint256"
        }
      ],
      "stateMutability": "view",
      "type": "function"
    },
    {
      "inputs": [
        {
          "internalType": "uint256",
          "name": "",
          "type": "uint256"
        }
      ],
      "name": "gameOwner",
      "outputs": [
        {
          "internalType": "address",
          "name": "",
          "type": "address"
        }
      ],
      "stateMutability": "view",
      "type": "function"
    },
    {
      "inputs": [
        {
          "internalType": "uint256",
          "name": "id",
          "type": "uint256"
        }
      ],
      "name": "getBasic",
      "outputs": [
        {
          "internalType": "address",
          "name": "player1",
          "type": "address"
        },
        {
          "internalType": "address",
          "name": "player2",
          "type": "address"
        },
        {
          "internalType": "uint256",
          "name": "stake",
          "type": "uint256"
        },
        {
          "internalType": "enum RockPaperScissors.State",
          "name": "state",
          "type": "uint8"
        },
        {
          "internalType": "uint256",
          "name": "createdAt",
          "type": "uint256"
        },
        {
          "internalType": "uint256",
          "name": "commitDeadline",
          "type": "uint256"
        },
        {
          "internalType": "uint256",
          "name": "revealDeadline",
          "type": "uint256"
        }
      ],
      "stateMutability": "view",
      "type": "function"
    },
    {
      "inputs": [
        {
          "internalType": "uint256",
          "name": "id",
          "type": "uint256"
        }
      ],
      "name": "joinGame",
      "outputs": [],
      "stateMutability": "payable",
      "type": "function"
    },
    {
      "inputs": [
        {
          "internalType": "uint256",
          "name": "id",
          "type": "uint256"
        },
        {
          "internalType": "uint8",
          "name": "move",
          "type": "uint8"
        },
        {
          "internalType": "string",
          "name": "salt",
          "type": "string"
        }
      ],
      "name": "revealMove",
      "outputs": [],
      "stateMutability": "nonpayable",
      "type": "function"
    }
  ],
  "bytecode": "0x608060405234801561001057600080fd5b50612962806100206000396000f3fe60806040526004361061007b5760003560e01c8063bc967ea91161004e578063bc967ea914610147578063bd675c0e14610184578063efaa55a0146101ad578063fd5b8b9d146101c95761007b565b806326826f62146100805780634d1975b4146100a957806360104cef146100d45780639a1fbe3114610104575b600080fd5b34801561008c57600080fd5b506100a760048036038101906100a29190611b04565b6101f2565b005b3480156100b557600080fd5b506100be6104c9565b6040516100cb9190611b53565b60405180910390f35b6100ee60048036038101906100e99190611b6e565b6104cf565b6040516100fb9190611b53565b60405180910390f35b34801561011057600080fd5b5061012b60048036038101906101269190611bae565b61069c565b60405161013e9796959493929190611c93565b60405180910390f35b34801561015357600080fd5b5061016e60048036038101906101699190611bae565b610747565b60405161017b9190611d02565b60405180910390f35b34801561019057600080fd5b506101ab60048036038101906101a69190611dbb565b61077a565b005b6101c760048036038101906101c29190611bae565b610cc3565b005b3480156101d557600080fd5b506101f060048036038101906101eb9190611bae565b610f76565b005b60006001600084815260200190815260200160002090506001600381111561021d5761021c611c1c565b5b8160060160009054906101000a900460ff16600381111561024157610240611c1c565b5b14610281576040517f08c379a000000000000000000000000000000000000000000000000000000000815260040161027890611e8c565b60405180910390fd5b80600801544211156102c8576040517f08c379a00000000000000000000000000000000000000000000000000000000081526004016102bf90611ef8565b60405180910390fd5b8060000160009054906101000a900473ffffffffffffffffffffffffffffffffffffffff1673ffffffffffffffffffffffffffffffffffffffff163373ffffffffffffffffffffffffffffffffffffffff16148061037557508060010160009054906101000a900473ffffffffffffffffffffffffffffffffffffffff1673ffffffffffffffffffffffffffffffffffffffff163373ffffffffffffffffffffffffffffffffffffffff16145b6103b4576040517f08c379a00000000000000000000000000000000000000000000000000000000081526004016103ab90611f64565b60405180910390fd5b6000801b8160030160003373ffffffffffffffffffffffffffffffffffffffff1673ffffffffffffffffffffffffffffffffffffffff168152602001908152602001600020541461043a576040517f08c379a000000000000000000000000000000000000000000000000000000000815260040161043190611fd0565b60405180910390fd5b818160030160003373ffffffffffffffffffffffffffffffffffffffff1673ffffffffffffffffffffffffffffffffffffffff168152602001908152602001600020819055503373ffffffffffffffffffffffffffffffffffffffff16837f452c97fab23345463f6fbb454d3bf4f408941c88abe2e79586032f5c8f9711fb60405160405180910390a3505050565b60005481565b6000803411610513576040517f08c379a000000000000000000000000000000000000000000000000000000000815260040161050a9061203c565b60405180910390fd5b600080600081546105239061208b565b91905081905590506000600160008381526020019081526020016000209050338160000160006101000a81548173ffffffffffffffffffffffffffffffffffffffff021916908373ffffffffffffffffffffffffffffffffffffffff16021790555034816002018190555060008160060160006101000a81548160ff021916908360038111156105b6576105b5611c1c565b5b021790555042816007018190555084426105d091906120d3565b81600801819055508381600801546105e891906120d3565b8160090181905550336002600084815260200190815260200160002060006101000a81548173ffffffffffffffffffffffffffffffffffffffff021916908373ffffffffffffffffffffffffffffffffffffffff1602179055503373ffffffffffffffffffffffffffffffffffffffff16827f7dfb67e9ff596fca4da65c7eedb128cd1aac553af54b3c0cb733625a2480d8bd346040516106899190611b53565b60405180910390a3819250505092915050565b600080600080600080600080600160008a815260200190815260200160002090508060000160009054906101000a900473ffffffffffffffffffffffffffffffffffffffff168160010160009054906101000a900473ffffffffffffffffffffffffffffffffffffffff1682600201548360060160009054906101000a900460ff16846007015485600801548660090154975097509750975097509750975050919395979092949650565b60026020528060005260406000206000915054906101000a900473ffffffffffffffffffffffffffffffffffffffff1681565b60028360ff1611156107c1576040517f08c379a00000000000000000000000000000000000000000000000000000000081526004016107b890612153565b60405180910390fd5b6000600160008681526020019081526020016000209050600160038111156107ec576107eb611c1c565b5b8160060160009054906101000a900460ff1660038111156108105761080f611c1c565b5b148061085157506002600381111561082b5761082a611c1c565b5b8160060160009054906101000a900460ff16600381111561084f5761084e611c1c565b5b145b610890576040517f08c379a0000000000000000000000000000000000000000000000000000000008152600401610887906121bf565b60405180910390fd5b806008015442116108d6576040517f08c379a00000000000000000000000000000000000000000000000000000000081526004016108cd9061222b565b60405180910390fd5b806009015442111561091d576040517f08c379a000000000000000000000000000000000000000000000000000000000815260040161091490612297565b60405180910390fd5b8060000160009054906101000a900473ffffffffffffffffffffffffffffffffffffffff1673ffffffffffffffffffffffffffffffffffffffff163373ffffffffffffffffffffffffffffffffffffffff1614806109ca57508060010160009054906101000a900473ffffffffffffffffffffffffffffffffffffffff1673ffffffffffffffffffffffffffffffffffffffff163373ffffffffffffffffffffffffffffffffffffffff16145b610a09576040517f08c379a0000000000000000000000000000000000000000000000000000000008152600401610a0090611f64565b60405180910390fd5b6000848484604051602001610a209392919061232c565b604051602081830303815290604052805190602001209050808260030160003373ffffffffffffffffffffffffffffffffffffffff1673ffffffffffffffffffffffffffffffffffffffff1681526020019081526020016000205414610abb576040517f08c379a0000000000000000000000000000000000000000000000000000000008152600401610ab2906123a2565b60405180910390fd5b848260040160003373ffffffffffffffffffffffffffffffffffffffff1673ffffffffffffffffffffffffffffffffffffffff16815260200190815260200160002060006101000a81548160ff021916908360ff16021790555060018260050160003373ffffffffffffffffffffffffffffffffffffffff1673ffffffffffffffffffffffffffffffffffffffff16815260200190815260200160002060006101000a81548160ff0219169083151502179055503373ffffffffffffffffffffffffffffffffffffffff16867fc98953cfdaf1355ff1a9db2d4975230864cb314b479eb1b02301c6523491216387604051610bb691906123d1565b60405180910390a38160050160008360000160009054906101000a900473ffffffffffffffffffffffffffffffffffffffff1673ffffffffffffffffffffffffffffffffffffffff1673ffffffffffffffffffffffffffffffffffffffff16815260200190815260200160002060009054906101000a900460ff168015610cac57508160050160008360010160009054906101000a900473ffffffffffffffffffffffffffffffffffffffff1673ffffffffffffffffffffffffffffffffffffffff1673ffffffffffffffffffffffffffffffffffffffff16815260200190815260200160002060009054906101000a900460ff165b15610cbb57610cba86611541565b5b505050505050565b6000600160008381526020019081526020016000209050600073ffffffffffffffffffffffffffffffffffffffff168160000160009054906101000a900473ffffffffffffffffffffffffffffffffffffffff1673ffffffffffffffffffffffffffffffffffffffff1603610d6d576040517f08c379a0000000000000000000000000000000000000000000000000000000008152600401610d6490612438565b60405180910390fd5b600073ffffffffffffffffffffffffffffffffffffffff168160010160009054906101000a900473ffffffffffffffffffffffffffffffffffffffff1673ffffffffffffffffffffffffffffffffffffffff1614610e00576040517f08c379a0000000000000000000000000000000000000000000000000000000008152600401610df7906124a4565b60405180910390fd5b80600201543414610e46576040517f08c379a0000000000000000000000000000000000000000000000000000000008152600401610e3d90612510565b60405180910390fd5b60006003811115610e5a57610e59611c1c565b5b8160060160009054906101000a900460ff166003811115610e7e57610e7d611c1c565b5b14610ebe576040517f08c379a0000000000000000000000000000000000000000000000000000000008152600401610eb59061257c565b60405180910390fd5b338160010160006101000a81548173ffffffffffffffffffffffffffffffffffffffff021916908373ffffffffffffffffffffffffffffffffffffffff16021790555060018160060160006101000a81548160ff02191690836003811115610f2957610f28611c1c565b5b02179055503373ffffffffffffffffffffffffffffffffffffffff16827f87969bc7faf902221a147b95ceba76e011c5efb0339a0a8ee7a2bb82d9cfbbd660405160405180910390a35050565b600060016000838152602001908152602001600020905060016003811115610fa157610fa0611c1c565b5b8160060160009054906101000a900460ff166003811115610fc557610fc4611c1c565b5b14611005576040517f08c379a0000000000000000000000000000000000000000000000000000000008152600401610ffc90611e8c565b60405180910390fd5b8060090154421161104b576040517f08c379a0000000000000000000000000000000000000000000000000000000008152600401611042906125e8565b60405180910390fd5b8060000160009054906101000a900473ffffffffffffffffffffffffffffffffffffffff1673ffffffffffffffffffffffffffffffffffffffff163373ffffffffffffffffffffffffffffffffffffffff1614806110f857508060010160009054906101000a900473ffffffffffffffffffffffffffffffffffffffff1673ffffffffffffffffffffffffffffffffffffffff163373ffffffffffffffffffffffffffffffffffffffff16145b611137576040517f08c379a000000000000000000000000000000000000000000000000000000000815260040161112e90611f64565b60405180910390fd5b60008160050160003373ffffffffffffffffffffffffffffffffffffffff1673ffffffffffffffffffffffffffffffffffffffff16815260200190815260200160002060009054906101000a900460ff161561119557339050611412565b8160050160008360000160009054906101000a900473ffffffffffffffffffffffffffffffffffffffff1673ffffffffffffffffffffffffffffffffffffffff1673ffffffffffffffffffffffffffffffffffffffff16815260200190815260200160002060009054906101000a900460ff16801561128457508160050160008360010160009054906101000a900473ffffffffffffffffffffffffffffffffffffffff1673ffffffffffffffffffffffffffffffffffffffff1673ffffffffffffffffffffffffffffffffffffffff16815260200190815260200160002060009054906101000a900460ff16155b156112b5578160000160009054906101000a900473ffffffffffffffffffffffffffffffffffffffff169050611411565b8160050160008360010160009054906101000a900473ffffffffffffffffffffffffffffffffffffffff1673ffffffffffffffffffffffffffffffffffffffff1673ffffffffffffffffffffffffffffffffffffffff16815260200190815260200160002060009054906101000a900460ff1680156113a457508160050160008360000160009054906101000a900473ffffffffffffffffffffffffffffffffffffffff1673ffffffffffffffffffffffffffffffffffffffff1673ffffffffffffffffffffffffffffffffffffffff16815260200190815260200160002060009054906101000a900460ff16155b156113d5578160010160009054906101000a900473ffffffffffffffffffffffffffffffffffffffff169050611410565b6040517f08c379a000000000000000000000000000000000000000000000000000000000815260040161140790612654565b60405180910390fd5b5b5b6000600283600201546114259190612674565b905060038360060160006101000a81548160ff0219169083600381111561144f5761144e611c1c565b5b021790555060008273ffffffffffffffffffffffffffffffffffffffff168260405161147a906126e7565b60006040518083038185875af1925050503d80600081146114b7576040519150601f19603f3d011682016040523d82523d6000602084013e6114bc565b606091505b5050905080611500576040517f08c379a00000000000000000000000000000000000000000000000000000000081526004016114f790612748565b60405180910390fd5b847ff5d92df6ae1a0b46d0a0c57c2e1da0d75d7591d2804ad086cb1e27ba67de7aaf84846040516115329291906127c7565b60405180910390a25050505050565b600060016000838152602001908152602001600020905060038081111561156b5761156a611c1c565b5b8160060160009054906101000a900460ff16600381111561158f5761158e611c1c565b5b036115cf576040517f08c379a00000000000000000000000000000000000000000000000000000000081526004016115c69061283c565b60405180910390fd5b60008160040160008360000160009054906101000a900473ffffffffffffffffffffffffffffffffffffffff1673ffffffffffffffffffffffffffffffffffffffff1673ffffffffffffffffffffffffffffffffffffffff16815260200190815260200160002060009054906101000a900460ff16905060008260040160008460010160009054906101000a900473ffffffffffffffffffffffffffffffffffffffff1673ffffffffffffffffffffffffffffffffffffffff1673ffffffffffffffffffffffffffffffffffffffff16815260200190815260200160002060009054906101000a900460ff1690508060ff168260ff16036118af5760038360060160006101000a81548160ff021916908360038111156116f2576116f1611c1c565b5b021790555060008360020154905060008460000160009054906101000a900473ffffffffffffffffffffffffffffffffffffffff1673ffffffffffffffffffffffffffffffffffffffff168260405161174a906126e7565b60006040518083038185875af1925050503d8060008114611787576040519150601f19603f3d011682016040523d82523d6000602084013e61178c565b606091505b5050905060008560010160009054906101000a900473ffffffffffffffffffffffffffffffffffffffff1673ffffffffffffffffffffffffffffffffffffffff16836040516117da906126e7565b60006040518083038185875af1925050503d8060008114611817576040519150601f19603f3d011682016040523d82523d6000602084013e61181c565b606091505b5050905081801561182a5750805b611869576040517f08c379a0000000000000000000000000000000000000000000000000000000008152600401611860906128a8565b60405180910390fd5b867ff5d92df6ae1a0b46d0a0c57c2e1da0d75d7591d2804ad086cb1e27ba67de7aaf60008060405161189c929190612903565b60405180910390a2505050505050611a8b565b6000808360ff161480156118c6575060028260ff16145b806118e3575060018360ff161480156118e2575060008260ff16145b5b80611900575060028360ff161480156118ff575060018260ff16145b5b9050600081611933578460010160009054906101000a900473ffffffffffffffffffffffffffffffffffffffff16611959565b8460000160009054906101000a900473ffffffffffffffffffffffffffffffffffffffff165b905060006002866002015461196e9190612674565b905060038660060160006101000a81548160ff0219169083600381111561199857611997611c1c565b5b021790555060008273ffffffffffffffffffffffffffffffffffffffff16826040516119c3906126e7565b60006040518083038185875af1925050503d8060008114611a00576040519150601f19603f3d011682016040523d82523d6000602084013e611a05565b606091505b5050905080611a49576040517f08c379a0000000000000000000000000000000000000000000000000000000008152600401611a4090612748565b60405180910390fd5b877ff5d92df6ae1a0b46d0a0c57c2e1da0d75d7591d2804ad086cb1e27ba67de7aaf8484604051611a7b9291906127c7565b60405180910390a2505050505050505b50565b600080fd5b600080fd5b6000819050919050565b611aab81611a98565b8114611ab657600080fd5b50565b600081359050611ac881611aa2565b92915050565b6000819050919050565b611ae181611ace565b8114611aec57600080fd5b50565b600081359050611afe81611ad8565b92915050565b60008060408385031215611b1b57611b1a611a8e565b5b6000611b2985828601611ab9565b9250506020611b3a85828601611aef565b9150509250929050565b611b4d81611a98565b82525050565b6000602082019050611b686000830184611b44565b92915050565b60008060408385031215611b8557611b84611a8e565b5b6000611b9385828601611ab9565b9250506020611ba485828601611ab9565b9150509250929050565b600060208284031215611bc457611bc3611a8e565b5b6000611bd284828501611ab9565b91505092915050565b600073ffffffffffffffffffffffffffffffffffffffff82169050919050565b6000611c0682611bdb565b9050919050565b611c1681611bfb565b82525050565b7f4e487b7100000000000000000000000000000000000000000000000000000000600052602160045260246000fd5b60048110611c5c57611c5b611c1c565b5b50565b6000819050611c6d82611c4b565b919050565b6000611c7d82611c5f565b9050919050565b611c8d81611c72565b82525050565b600060e082019050611ca8600083018a611c0d565b611cb56020830189611c0d565b611cc26040830188611b44565b611ccf6060830187611c84565b611cdc6080830186611b44565b611ce960a0830185611b44565b611cf660c0830184611b44565b98975050505050505050565b6000602082019050611d176000830184611c0d565b92915050565b600060ff82169050919050565b611d3381611d1d565b8114611d3e57600080fd5b50565b600081359050611d5081611d2a565b92915050565b600080fd5b600080fd5b600080fd5b60008083601f840112611d7b57611d7a611d56565b5b8235905067ffffffffffffffff811115611d9857611d97611d5b565b5b602083019150836001820283011115611db457611db3611d60565b5b9250929050565b60008060008060608587031215611dd557611dd4611a8e565b5b6000611de387828801611ab9565b9450506020611df487828801611d41565b935050604085013567ffffffffffffffff811115611e1557611e14611a93565b5b611e2187828801611d65565b925092505092959194509250565b600082825260208201905092915050565b7f6e6f7420696e20636f6d6d697420706861736500000000000000000000000000600082015250565b6000611e76601383611e2f565b9150611e8182611e40565b602082019050919050565b60006020820190508181036000830152611ea581611e69565b9050919050565b7f636f6d6d697420636c6f73656400000000000000000000000000000000000000600082015250565b6000611ee2600d83611e2f565b9150611eed82611eac565b602082019050919050565b60006020820190508181036000830152611f1181611ed5565b9050919050565b7f6e6f7420706c6179657200000000000000000000000000000000000000000000600082015250565b6000611f4e600a83611e2f565b9150611f5982611f18565b602082019050919050565b60006020820190508181036000830152611f7d81611f41565b9050919050565b7f616c726561647920636f6d6d6974746564000000000000000000000000000000600082015250565b6000611fba601183611e2f565b9150611fc582611f84565b602082019050919050565b60006020820190508181036000830152611fe981611fad565b9050919050565b7f7374616b65207265717569726564000000000000000000000000000000000000600082015250565b6000612026600e83611e2f565b915061203182611ff0565b602082019050919050565b6000602082019050818103600083015261205581612019565b9050919050565b7f4e487b7100000000000000000000000000000000000000000000000000000000600052601160045260246000fd5b600061209682611a98565b91507fffffffffffffffffffffffffffffffffffffffffffffffffffffffffffffffff82036120c8576120c761205c565b5b600182019050919050565b60006120de82611a98565b91506120e983611a98565b92508282019050808211156121015761210061205c565b5b92915050565b7f696e76616c6964206d6f76650000000000000000000000000000000000000000600082015250565b600061213d600c83611e2f565b915061214882612107565b602082019050919050565b6000602082019050818103600083015261216c81612130565b9050919050565b7f6e6f742072657665616c61626c65000000000000000000000000000000000000600082015250565b60006121a9600e83611e2f565b91506121b482612173565b602082019050919050565b600060208201905081810360008301526121d88161219c565b9050919050565b7f72657665616c206e6f7420737461727465640000000000000000000000000000600082015250565b6000612215601283611e2f565b9150612220826121df565b602082019050919050565b6000602082019050818103600083015261224481612208565b9050919050565b7f72657665616c20636c6f73656400000000000000000000000000000000000000600082015250565b6000612281600d83611e2f565b915061228c8261224b565b602082019050919050565b600060208201905081810360008301526122b081612274565b9050919050565b60008160f81b9050919050565b60006122cf826122b7565b9050919050565b6122e76122e282611d1d565b6122c4565b82525050565b600081905092915050565b82818337600083830152505050565b600061231383856122ed565b93506123208385846122f8565b82840190509392505050565b600061233882866122d6565b600182019150612349828486612307565b9150819050949350505050565b7f636f6d6d6974206d69736d617463680000000000000000000000000000000000600082015250565b600061238c600f83611e2f565b915061239782612356565b602082019050919050565b600060208201905081810360008301526123bb8161237f565b9050919050565b6123cb81611d1d565b82525050565b60006020820190506123e660008301846123c2565b92915050565b7f6e6f2067616d6500000000000000000000000000000000000000000000000000600082015250565b6000612422600783611e2f565b915061242d826123ec565b602082019050919050565b6000602082019050818103600083015261245181612415565b9050919050565b7f616c7265616479206a6f696e6564000000000000000000000000000000000000600082015250565b600061248e600e83611e2f565b915061249982612458565b602082019050919050565b600060208201905081810360008301526124bd81612481565b9050919050565b7f7374616b65206d69736d61746368000000000000000000000000000000000000600082015250565b60006124fa600e83611e2f565b9150612505826124c4565b602082019050919050565b60006020820190508181036000830152612529816124ed565b9050919050565b7f6e6f74206a6f696e61626c650000000000000000000000000000000000000000600082015250565b6000612566600c83611e2f565b915061257182612530565b602082019050919050565b6000602082019050818103600083015261259581612559565b9050919050565b7f72657665616c206e6f74206f7665720000000000000000000000000000000000600082015250565b60006125d2600f83611e2f565b91506125dd8261259c565b602082019050919050565b60006020820190508181036000830152612601816125c5565b9050919050565b7f6e6f2072657665616c6564206d6f766573000000000000000000000000000000600082015250565b600061263e601183611e2f565b915061264982612608565b602082019050919050565b6000602082019050818103600083015261266d81612631565b9050919050565b600061267f82611a98565b915061268a83611a98565b925082820261269881611a98565b915082820484148315176126af576126ae61205c565b5b5092915050565b600081905092915050565b50565b60006126d16000836126b6565b91506126dc826126c1565b600082019050919050565b60006126f2826126c4565b9150819050919050565b7f7472616e73666572206661696c65640000000000000000000000000000000000600082015250565b6000612732600f83611e2f565b915061273d826126fc565b602082019050919050565b6000602082019050818103600083015261276181612725565b9050919050565b6000819050919050565b600061278d61278861278384611bdb565b612768565b611bdb565b9050919050565b600061279f82612772565b9050919050565b60006127b182612794565b9050919050565b6127c1816127a6565b82525050565b60006040820190506127dc60008301856127b8565b6127e96020830184611b44565b9392505050565b7f616c72656164792066696e697368656400000000000000000000000000000000600082015250565b6000612826601083611e2f565b9150612831826127f0565b602082019050919050565b6000602082019050818103600083015261285581612819565b9050919050565b7f726566756e64206661696c656400000000000000000000000000000000000000600082015250565b6000612892600d83611e2f565b915061289d8261285c565b602082019050919050565b600060208201905081810360008301526128c181612885565b9050919050565b6000819050919050565b60006128ed6128e86128e3846128c8565b612768565b611a98565b9050919050565b6128fd816128d2565b82525050565b60006040820190506129186000830185611c0d565b61292560208301846128f4565b939250505056fea2646970667358221220345c731354afe641e1c482564460122159fc44984552f4e9b0c7bfb8cd9ea11f64736f6c63430008140033",
  "linkReferences": {},
  "deployedLinkReferences": {}
}